:020000040800F2
:1000000080060020B5010008391400080513000817
:1000100035140008BD0200089D160008000000000D
:10002000000000000000000000000000E9140008CB
:10003000C102000800000000A914000829160008E9
:10004000CF010008CF010008CF010008CF01000850
:10005000CF010008CF010008CF010008CF01000840
:1000600001030008CF010008CF010008CF010008FC
:10007000CF010008CF010008CF010008CF01000820
:10008000CF010008CF010008CF010008CF01000810
:10009000CF010008CF010008CF0100089503000838
:1000A000CF010008CF010008CF010008CF010008F0
:1000B000CF010008CF010008CF010008CF010008E0
:1000C000CF010008CF010008CF010008CF010008D0
:1000D000CF010008CF010008CF010008CF010008C0
:1000E000C5020008CF010008CF01000800F002F8A7
:1000F00000F050F814A696E8000CB244B344DA4578
:1001000001D100F047F8BAE80F000FA696E83000DA
:10011000A5EB040504EB0607AAEB0704A7F101070A
:100120004FEA15154FEA3414A4F10104AC4201D38F
:1001300000F030F813F0010F18BFFB1A43F0010371
:1001400000F001F8DBE71847681700008817000087
:10015000103A24BF78C878C1FAD8520724BF30C8F3
:1001600030C144BF04680C60704700007047000055
:100170000023002400250026103A28BF78C1FBD8B0
:10018000520728BF30C148BF0B6070471FB51FBD65
:1001900010B510BD00F058F81146FFF7F7FF01F059
:1001A000DFFA00F076F803B4FFF7F2FF03BC00F0CB
:1001B0007DF800000948804709480047FEE7FEE750
:1001C000FEE7FEE7FEE7FEE7FEE7FEE7FEE7FEE707
:1001D00004480549054A064B704700009916000877
:1001E000ED00000880000020800600208002002032
:1001F000800200204FF0000200B513469446964658
:10020000203922BFA0E80C50A0E80C50B1F1200129
:10021000BFF4F7AF090728BFA0E80C5048BF0CC0D7
:100220005DF804EB890028BF40F8042B08BF704735
:1002300048BF20F8022B11F0804F18BF00F8012BA7
:100240007047704770477047754600F02BF8AE4610
:1002500005006946534620F00700854618B020B5D2
:10026000FFF7B6FFBDE820404FF000064FF0000753
:100270004FF000084FF0000BAC46ACE8C009ACE80A
:10028000C009ACE8C009ACE8C00921F007018D46FF
:10029000704710B50446AFF300802046BDE810401B
:1002A000FFF781BF00487047100000200149182067
:1002B000ABBEFEE72600020070470000FFE7FEE746
:1002C0007047000080B50A2000F088F8FFE740F68C
:1002D0000040C4F201004FF4805100F053FA20B9FD
:1002E000FFE70A2000F07AF8F1E740F27001C2F26D
:1002F0000001012008804FF4805000F097F880BD85
:1003000080B50A2000F06AF8FFE740F60000C4F26A
:100310000100042100F036FA20B9FFE70A2000F0BE
:100320005DF8F2E740F27400C2F20000018801318A
:1003300001800088022807D1FFE740F27401C2F271
:10034000000100200880FFE740F27400C2F20000C4
:10035000008848B9FFE740F20401C2F20001122010
:10036000087034204870FFE740F27400C2F20000C9
:100370000088012809D1FFE740F20401C2F2000120
:100380005620087078204870FFE7042000F04EF8EF
:1003900080BD000080B50A2000F020F8FFE740F69D
:1003A0000040C4F20100802100F0ECF920B9FFE721
:1003B0000A2000F013F8F2E740F27201C2F20001E5
:1003C00001200880802000F031F880BD81B0EFF37B
:1003D000108072B60090FFE7FEE7000080B584B0A1
:1003E000039000F0FFF9029003980190019801300A
:1003F00048B1FFE740F20B00C2F20000017801981B
:1004000008440190FFE7FFE700F0ECF90299401A79
:100410000199884201D2FFE7F6E704B080BD0000F1
:1004200081B0ADF8020001B07047000080B582B025
:10043000ADF8060040F21440C4F201000068BDF8B7
:10044000061008420CD0FFE7BDF8060040F2144148
:10045000C4F201010860BDF80600FFF7E1FFFFE705
:1004600002B080BD90B00F900E9100200D900990C9
:10047000FFE70E9800680D99C840002800F07F81C2
:10048000FFE70D99012088400C900E9800680C99A8
:1004900008400B900B980C99884240F06C81FFE764
:1004A0000E9840680590002851D0FFE70598012874
:1004B0003AD0FFE7059802283FD0FFE705980328C8
:1004C0005FD0FFE70598112832D0FFE70598122882
:1004D00038D0FFE705980021C1F21101884236D0DB
:1004E000FFE705980021C1F2120188422FD0FFE7F3
:1004F00005980021C1F22101884228D0FFE7059824
:100500000021C1F22201884221D0FFE70598002195
:10051000C1F2310188421AD0FFE705980021C1F2EB
:100520003201884213D02FE00E98C06809902CE069
:100530000E98C0680430099027E00E98C068083013
:10054000099022E00E98C0680C3009901DE00E98CA
:10055000806818B9FFE70420099011E00E988068C0
:10056000012806D1FFE7082009900C980F9908612F
:1005700005E0082009900C980F994861FFE7FFE714
:1005800003E00020099000E0FFE70B98FF2803D864
:10059000FFE70F98049003E00F9804300490FFE702
:1005A000049808900B98FF2804D8FFE70D98800066
:1005B000039006E00D996FF01F0000EB810003909F
:1005C000FFE70398079008980068079A0F21914069
:1005D0008843099991400843089908600E98C079AA
:1005E000C006002840F1C680FFE7FFE741F218008F
:1005F000C4F20200016841F001010160006800F0EE
:10060000010006900698FFE70D9820F003000821EE
:10061000C4F2010140580A900D9800F003008100D7
:100620000F2000FA01F10A9888430A900F9840F6CB
:100630000001C4F20101884203D1FFE700200290CB
:1006400026E00F9840F60041C4F20101884203D130
:10065000FFE70120019018E00F9841F20001C4F279
:100660000101884203D1FFE7022000900AE00F99C0
:1006700041F20042C4F201020420914208BF03206B
:100680000090FFE700980190FFE701980290FFE7D4
:1006900002980D9901F00301890000FA01F10A980E
:1006A00008430A900A980D9921F003010822C4F228
:1006B000010288500E988079C006002809D5FFE70E
:1006C0000B9A40F20841C4F2010108681043086027
:1006D00008E00B9A40F20841C4F201010868904317
:1006E0000860FFE70E9880798006002809D5FFE7AB
:1006F0000B9A40F20C41C4F20101086810430860F3
:1007000008E00B9A40F20C41C4F2010108689043E2
:100710000860FFE70E9880798007002809D5FFE779
:100720000B9A40F20441C4F20101086810430860CA
:1007300008E00B9A40F20441C4F2010108689043BA
:100740000860FFE70E988079C00748B1FFE70B9A71
:1007500040F20041C4F2010108681043086008E05B
:100760000B9A40F20041C4F201010868904308600E
:10077000FFE7FFE7FFE70D9801300D9079E610B035
:100780007047000082B00190ADF8021001988068B7
:10079000BDF80210084204D0FFE701208DF80100E7
:1007A00003E000208DF80100FFE79DF8010002B092
:1007B0007047000082B00190ADF802108DF8012062
:1007C0009DF8010028B1FFE7BDF80200019908611A
:1007D00005E0BDF80200000401990861FFE702B0DE
:1007E0007047000040F27800C2F2000000687047D5
:1007F00040F20B00C2F20000027840F27801C2F22F
:1008000000010868104408607047000080B582B09D
:1008100042F20001C4F20201086840F010000860D2
:10082000032000F097F80020019000F005F800F098
:100830003BF8019802B080BD80B582B0009040F2D4
:100840000000C2F20000006840F20B01C2F2000199
:100850000A784FF47A71B1FBF2F1B0FBF1F000F0DD
:1008600049FD20B1FFE701208DF8070018E000984E
:100870000F280DD8FFE700994FF0FF30002200F05D
:100880004FF8009840F20C01C2F20001086003E04A
:1008900001208DF8070003E000208DF80700FFE736
:1008A0009DF8070002B080BD83B0FFE741F2180059
:1008B000C4F20200016841F001010160006800F02B
:1008C000010002900298FFE7FFE741F21C00C4F22A
:1008D0000200016841F080510160006800F0805022
:1008E00001900198FFE7FFE70421C4F201010868C5
:1008F0000090009820F0E0600090009840F00070B8
:10090000009000980860FFE703B0704780B582B0A0
:100910008DF807009DF9070000F0C2FE02B080BD0F
:1009200080B586B08DF817000491039200200290E4
:1009300000F0CEFE02909DF91700019002980499F4
:10094000039A00F07BFD0146019800F0C9FE06B055
:1009500080BD000080B582B00190019800F0E2FEF9
:1009600002B080BD80B584B002900191029820B998
:10097000FFE701208DF80F001BE1019842F2000112
:10098000C4F20201096801F00701884216D9FFE7A5
:1009900042F20000C4F20200016821F00701019A4E
:1009A00011430160006800F007000199884204D0FB
:1009B000FFE701208DF80F00FBE0FFE702980078C9
:1009C000800700282AD5FFE7029800784007002812
:1009D00009D5FFE741F20401C4F20201086840F4BE
:1009E000E0600860FFE7029800780007002809D55A
:1009F000FFE741F20401C4F20201086840F46050CC
:100A00000860FFE741F20401C4F20201086820F027
:100A1000F000029A926810430860FFE7029800789D
:100A2000C007002860D0FFE70298406801280ED177
:100A3000FFE741F20000C4F20200006880030028D2
:100A400004D4FFE701208DF80F00B2E021E0029806
:100A5000406802280ED1FFE741F20000C4F2020014
:100A600000688001002804D4FFE701208DF80F0002
:100A70009FE00DE041F20000C4F202000068800730
:100A8000002804D4FFE701208DF80F0091E0FFE774
:100A9000FFE741F20401C4F20201086820F00300FC
:100AA000029A526810430860FFF79CFE0090FFE72F
:100AB00041F20400C4F20200006800F00C00029948
:100AC0004968B0EB810F0ED0FFE7FFF78BFE00996E
:100AD000401A41F28931884204D3FFE703208DF8A0
:100AE0000F0066E0E4E7FFE7019842F20001C4F27C
:100AF0000201096801F00701884216D2FFE742F2BD
:100B00000000C4F20200016821F00701019A1143BC
:100B10000160006800F007000199884204D0FFE7F7
:100B200001208DF80F0044E0FFE7029800784007AD
:100B300000280CD5FFE741F20401C4F20201086865
:100B400020F4E060029AD26810430860FFE7029840
:100B50000078000700280DD5FFE741F20401C4F238
:100B60000201086820F46050029A126940EAC2004B
:100B70000860FFE700F022F841F20401C4F202012C
:100B80000968C9B20A0941F68E01C0F60001895C04
:100B9000C84040F20001C2F20001086040F20C00BF
:100BA000C2F200000068FFF747FE00208DF80F003A
:100BB000FFE79DF80F0004B080BD000086B0002064
:100BC0000590049003900290019041F20400C4F259
:100BD000020000680590059800F00C0001460091A5
:100BE00000283FD0FFE70098042804D0FFE70098D2
:100BF000082806D037E041F20020C0F27A000190C8
:100C000037E00598C0F3834141F69E00C0F600002E
:100C1000405C02909DF81600C007C0B1FFE741F2AA
:100C20000400C4F202000068C0F3404141F6AE0087
:100C3000C0F60000405C0490029841F20021C0F22E
:100C40007A0148430499B0FBF1F0039007E0029861
:100C500040F60011C0F23D0148430390FFE70398BE
:100C6000019006E0FFE741F20020C0F27A00019017
:100C7000FFE7019806B0704780B586B004900498ED
:100C800020B9FFE701208DF817002EE304980078C3
:100C9000C007002800F0AE80FFE741F20400C4F274
:100CA0000200006800F00C00042813D0FFE741F2B6
:100CB0000400C4F20200006800F00C0008281BD1F8
:100CC000FFE741F20400C4F202000068C0030028FC
:100CD00012D5FFE741F20000C4F202000068800371
:100CE000002808D5FFE70498406820B9FFE70120F5
:100CF0008DF81700F9E27CE0FFE704984068B0F552
:100D0000803F09D1FFE741F20001C4F20201086807
:100D100040F48030086032E00498406868B9FFE72A
:100D200041F20001C4F20201086820F4803008603A
:100D3000086820F48020086020E004984068B0F53E
:100D4000A02F0DD1FFE741F20001C4F202010868B3
:100D500040F480200860086840F4803008600CE0AF
:100D600041F20001C4F20201086820F480300860FA
:100D7000086820F480200860FFE7FFE7FFE7FFE74F
:100D800004984068D0B1FFE7FFF72CFD0390FFE720
:100D900041F20000C4F202000068800300280CD475
:100DA000FFE7FFF71FFD0399401A652804D3FFE70B
:100DB00003208DF8170098E2EAE719E0FFF712FD2B
:100DC0000390FFE741F20000C4F2020000688003D4
:100DD00000280CD5FFE7FFF705FD0399401A6528A9
:100DE00004D3FFE703208DF817007EE2EAE7FFE770
:100DF000FFE7FFE7049800788007002840F18D8026
:100E0000FFE741F20400C4F20200006810F00C0F8A
:100E100013D0FFE741F20400C4F20200006800F0C2
:100E20000C00082829D1FFE741F20400C4F20200B7
:100E30000068C003002820D4FFE741F20000C4F29C
:100E4000020000688007002809D5FFE704980069C0
:100E5000012804D0FFE701208DF8170045E241F298
:100E60000001C4F20201086820F0F800049A5269F7
:100E700040EAC2000860FFE74EE00498006958B3FA
:100E8000FFE70021C4F2422101200860FFF7AAFC1D
:100E90000390FFE741F20000C4F2020000688007FF
:100EA00000280CD4FFE7FFF79DFC0399401A0328A4
:100EB00004D3FFE703208DF8170016E2EAE741F2BA
:100EC0000001C4F20201086820F0F800049A526997
:100ED00040EAC20008601EE00021C4F24221002066
:100EE0000860FFF77FFC0390FFE741F20000C4F2C7
:100EF00002000068800700280CD5FFE7FFF772FCAE
:100F00000399401A032804D3FFE703208DF8170044
:100F1000EBE1EAE7FFE7FFE7FFE704980078000767
:100F2000002848D5FFE70498806918B3FFE740F22E
:100F30008041C4F2422101200860FFF753FC039076
:100F4000FFE741F22400C4F2020000688007002895
:100F50000CD4FFE7FFF746FC0399401A032804D39B
:100F6000FFE703208DF81700BFE1EAE7012000F05A
:100F70009DFA1FE040F28041C4F242210020086047
:100F8000FFF730FC0390FFE741F22400C4F20200B7
:100F90000068800700280CD5FFE7FFF723FC0399C2
:100FA000401A032804D3FFE703208DF817009CE1C3
:100FB000EAE7FFE7FFE7049800784007002840F1E0
:100FC000D880FFE700208DF8070041F21C00C4F232
:100FD00002000068C000002813D4FFE7FFE741F2D9
:100FE0001C00C4F20200016841F0805101600068F9
:100FF00000F0805000900098FFE701208DF8070076
:10100000FFE747F20000C4F200000068C0050028B6
:1010100022D4FFE747F20001C4F20001086840F45F
:1010200080700860FFF7DEFB0390FFE747F20000E7
:10103000C4F200000068C00500280CD4FFE7FFF7E9
:10104000D1FB0399401A652804D3FFE703208DF8EC
:1010500017004AE1EAE7FFE7FFE70498C0680128C4
:1010600009D1FFE741F22001C4F20201086840F013
:101070000100086031E00498C06868B9FFE741F2F8
:101080002001C4F20201086820F00100086008682D
:1010900020F0040008601FE00498C06805280DD106
:1010A000FFE741F22001C4F20201086840F00400A9
:1010B0000860086840F0010008600CE041F220017F
:1010C000C4F20201086820F001000860086820F0FE
:1010D00004000860FFE7FFE7FFE7FFE70498C06848
:1010E000E0B1FFE7FFF77EFB0390FFE741F220004E
:1010F000C4F202000068800700280ED4FFE7FFF763
:1011000071FB0399401A41F28931884204D3FFE709
:1011100003208DF81700E8E0E8E71BE0FFF762FB2B
:101120000390FFE741F22000C4F20200006880074C
:1011300000280ED5FFE7FFF755FB0399401A41F24F
:101140008931884204D3FFE703208DF81700CCE0F3
:10115000E8E7FFE79DF80700012809D1FFE741F222
:101160001C01C4F20201086820F080500860FFE70B
:10117000FFE70498C069002800F0B380FFE741F260
:101180000400C4F20200006800F00C00082800F01F
:101190008280FFE70498C06902285CD1FFE76021E4
:1011A000C4F2422100200860FFF71CFB0390FFE718
:1011B00041F20000C4F202000068800100280CD552
:1011C000FFE7FFF70FFB0399401A032804D3FFE75B
:1011D00003208DF8170088E0EAE70498006AB0F56C
:1011E000803F0CD1FFE741F20401C4F2020108681C
:1011F00020F40030049A926810430860FFE741F23F
:101200000401C4F20201086820F47410049B1A6AF5
:101210005B6A1A43104308606021C4F24221012036
:101220000860FFF7DFFA0390FFE741F20000C4F225
:1012300002000068800100280CD4FFE7FFF7D2FA13
:101240000399401A032804D3FFE703208DF8170001
:101250004BE0EAE71EE06021C4F242210020086072
:10126000FFF7C0FA0390FFE741F20000C4F202006A
:101270000068800100280CD5FFE7FFF7B3FA039957
:10128000401A032804D3FFE703208DF817002CE051
:10129000EAE7FFE724E00498C069012804D1FFE7EA
:1012A00001208DF8170020E041F20400C4F2020092
:1012B00000680290029800F480300499096A88421C
:1012C00008D1FFE7029800F470100499496A884237
:1012D00004D0FFE701208DF8170006E0FFE7FFE7E5
:1012E000FFE700208DF81700FFE79DF8170006B014
:1012F00080BD000080B582B00190019800F06AF9CD
:1013000002B080BDFFE7FEE780B592B000201190EB
:1013100010900F900E90FFE741F21800C4F2020007
:10132000016841F010010160006800F010000D90AC
:101330000D98FFE7FFE741F21800C4F202000168D0
:1013400041F020010160006800F020000C900C9832
:10135000FFE7FFE741F21800C4F20200016841F024
:1013600004010160006800F004000B900B98FFE797
:10137000FFE741F21800C4F20200016841F00801E1
:101380000160006800F008000A900A98FFE740F644
:101390000040C4F2010003904FF40061019101226A
:1013A0000792FFF707FA079804210E910021C1F276
:1013B000210102910F91109040F60000C4F201004B
:1013C0000EA90491FFF74EF8019B03980499079A20
:1013D0000E930F9200220892109202221192FFF7B0
:1013E00041F8029B03980499079A4FF4845CCDF866
:1013F00038C00F931092FFF735F80799089A082024
:101400000590FFF78DFA0598FFF780FA0799089A7B
:1014100017200690FFF784FA0698FFF777FA0799E6
:10142000089A28200990FFF77BFA0998FFF76EFACF
:1014300012B080BDFFE7FEE7FFE7FEE788B0079048
:1014400006910592079800F0070004900498C0F1F7
:101450000700052803D3FFE70420019004E0049867
:10146000C0F107000190FFE7019803900498043051
:10147000062803D8FFE70020009003E00498033813
:101480000090FFE70098029006980399012202FA63
:1014900001F101390840029B984005999A40013AB0
:1014A0001140084308B070477047000082B00190B7
:1014B000019840F20001C2F200010968C90844F62F
:1014C000D352C1F26202A1FB022189094843009074
:1014D000FFE700BFFFE70098411E00910028F8D108
:1014E000FFE702B0704700007047000080B586B08B
:1014F00084460898CDF814C0ADF812100392ADF8E8
:101500000A30ADF80800059838B1FFE7039820B11C
:10151000FFE7BDF80A0008B9FFE759E00020ADF881
:101520000600FFE7BDF80600BDF80A1088424FDA52
:10153000FFE70398BDF80610405C8DF8050005989C
:10154000BDF8121000220092FFF734F9BDF8080030
:101550000138FEF743FF00988DF80400FFE79DF87F
:101560000400072822DCFFE79DF805009DF8041021
:10157000C840C00738B1FFE70598BDF81210012236
:10158000FFF718F906E00598BDF812100022FFF7E2
:1015900011F9FFE7BDF808000138FEF71FFFFFE76C
:1015A0009DF8040001308DF80400D8E70598BDF8D7
:1015B00012100122FFF7FEF8BDF808000138FEF70F
:1015C0000DFFFFE7BDF806000130ADF80600A9E702
:1015D00006B080BD80B582B0009000980138B0F1AF
:1015E000807F03D3FFE70120019019E000980138C4
:1015F0004EF21401CEF2000108604FF0FF300F21CF
:1016000000F06EF84EF21801CEF2000100200860E2
:101610004EF21002CEF20002072111600190FFE7A6
:10162000019802B080BD000080B5FFF7E1F880BDF1
:1016300080B590B006A800902821FEF7DBFD009849
:1016400000210591049103910291019102220692D9
:1016500001230A9310230B930D920E914FF4601106
:101660000F91FFF709FB18B1FFE7FEF7AFFEFFE7A9
:101670000F20019002210291002003904FF480621C
:101680000492059001A8FFF76DF918B1FFE7FEF786
:101690009DFEFFE710B080BD70470000FFE7FEE74A
:1016A00081B08DF803009DF9030000280ED4FFE7F8
:1016B0009DF9031001F01F02012090404A094EF2EB
:1016C0000011CEF2000141F82200FFE701B070479F
:1016D0004EF60C50CEF200000068C0F302207047B6
:1016E00082B08DF8070000919DF9070000280AD408
:1016F000FFE7009800019DF907104EF20042CEF27C
:10170000000288540BE0009800019DF8071001F0DA
:101710000F014EF61452CEF200028854FFE702B0D9
:101720007047000083B00290029800F0070000901C
:101730004EF60C51CEF200010868019001984FF668
:10174000FF02104001900198009A40EA0220002216
:10175000C0F2FA52104301900198086003B070473C
:1017600080B58CB000200B90FFF750F8FFF760FFBA
:10177000FFF7CAFDFFE740F27000C2F200000088E8
:10178000012840F08380FFE740F27001C2F20001BF
:101790000020088069460A200890086040F206028E
:1017A000C2F2000240F60040C4F2010009904FF47A
:1017B00000610A910123FFF799FE089A09980A9996
:1017C0006B461A6040F20702C2F200020223FFF7E2
:1017D0008DFEFFE74FF47A70FEF700FE69460A209F
:1017E0000590086040F20602C2F2000240F6004096
:1017F000C4F2010006904FF4006107910123FFF746
:1018000075FE059A069807996B461A6040F2040225
:10181000C2F200020223FFF769FE40F27200C2F238
:101820000000008801282FD1FFE740F27001C2F2CA
:1018300000010020088040F27201C2F2000108801D
:101840004FF47A70FEF7CAFD69460A2002900860DC
:1018500040F20602C2F2000240F60040C4F201006B
:1018600003904FF4006104910123FFF73FFE029AB9
:10187000039804996B461A6040F20902C2F2000212
:101880000223FFF733FE00E0A4E7FFE773E7000061
:10189000000000000000010203040607080902031B
:1018A0000405060708090A0B0C0D0E0F10100102A3
:1018B000D0180008000000201000000050010008AF
:1018C000E0180008100000207006000070010008F9
:1018D00000127A001234AAC8C8C9C9011000000059
:04000005080000ED02
:00000001FF
